:020000040800F2
:1000000000500020C1220008FD2000080521000842
:100010000D210008152100081D2100080000000026
:1000200000000000000000000000000061800008E7
:100030002521000800000000418200088982000894
:1000400009230008092300080923000809230008E0
:1000500009230008092300080923000809230008D0
:1000600009230008092300080923000809230008C0
:1000700009230008092300080923000809230008B0
:1000800009230008092300080923000809230008A0
:100090000923000809230008092300080923000890
:1000A0000923000809230008092300080923000880
:1000B000312100080923000809230008092300084A
:1000C0000923000809230008092300080923000860
:1000D0000923000845210008092300080923000816
:1000E0000923000809230008092300080000000074
:1000F0000000000000000000000000000000000000
:0C01000000000000000000005FF808F1A3
:1001100010B5054C237833B9044B13B10448AFF341
:1001200000800123237010BDA0000020000000000B
:10013000D89F000808B5034B1BB103490348AFF330
:10014000008008BD00000000A4000020D89F000827
:10015000034613F8012B002AFBD1181A0138704707
:1001600081F0004102E000BF83F0004330B54FEA68
:1001700041044FEA430594EA050F08BF90EA020FD5
:100180001FBF54EA000C55EA020C7FEA645C7FEA68
:10019000655C00F0E2804FEA5454D4EB5555B8BF8B
:1001A0006D420CDD2C4480EA020281EA030382EAFC
:1001B000000083EA010180EA020281EA0303362D8E
:1001C00088BF30BD11F0004F4FEA01314FF4801C61
:1001D0004CEA113102D0404261EB410113F0004F73
:1001E0004FEA03334CEA133302D0524263EB43032A
:1001F00094EA050F00F0A780A4F10104D5F1200EC8
:100200000DDB02FA0EFC22FA05F2801841F1000122
:1002100003FA0EF2801843FA05F359410EE0A5F1F6
:1002200020050EF1200E012A03FA0EFC28BF4CF027
:10023000020C43FA05F3C01851EBE37101F00045DD
:1002400007D54FF0000EDCF1000C7EEB00006EEBEA
:100250000101B1F5801F1BD3B1F5001F0CD3490874
:100260005FEA30004FEA3C0C04F101044FEA4452CB
:1002700012F5800F80F09A80BCF1004F08BF5FEA52
:10028000500C50F1000041EB045141EA050130BD32
:100290005FEA4C0C404141EB0101013C28BFB1F544
:1002A000801FE9D291F0000F04BF01460020B1FA8F
:1002B00081F308BF2033A3F10B03B3F120020CDA62
:1002C0000C3208DD02F1140CC2F10C0201FA0CF040
:1002D00021FA02F10CE002F11402D8BFC2F1200CA5
:1002E00001FA02F120FA0CFCDCBF41EA0C0190405B
:1002F000E41AA2BF01EB0451294330BD6FEA0404A4
:100300001F3C1CDA0C340EDC04F11404C4F120028E
:1003100020FA04F001FA02F340EA030021FA04F3A0
:1003200045EA030130BDC4F10C04C4F1200220FAF7
:1003300002F001FA04F340EA0300294630BD21FA35
:1003400004F0294630BD94F0000F83F4801306BFFB
:1003500081F480110134013D4EE77FEA645C18BFEF
:100360007FEA655C29D094EA050F08BF90EA020F86
:1003700005D054EA000C04BF1946104630BD91EA7E
:10038000030F1EBF0021002030BD5FEA545C05D181
:100390004000494128BF41F0004130BD14F58004C0
:1003A0003CBF01F5801130BD01F0004545F0FE4134
:1003B00041F470014FF0000030BD7FEA645C1ABF69
:1003C000194610467FEA655C1CBF0B46024650EAA0
:1003D000013406BF52EA033591EA030F41F40021CC
:1003E00030BD00BF90F0000F04BF0021704730B552
:1003F0004FF4806404F132044FF000054FF0000127
:1004000050E700BF90F0000F04BF0021704730B5E7
:100410004FF4806404F1320410F0004548BF4042BC
:100420004FF000013EE700BF42004FEAE2014FEA11
:1004300031014FEA02701FBF12F07F4393F07F4FEC
:1004400081F06051704732F07F4208BF704793F0EF
:100450007F4F04BF41F40021704730B54FF4607402
:1004600001F0004521F000411CE700BF50EA010205
:1004700008BF704730B54FF000050AE050EA0102AE
:1004800008BF704730B511F0004502D5404261EB1E
:1004900041014FF4806404F132045FEA915C3FF45F
:1004A000D8AE4FF003025FEADC0C18BF03325FEAFC
:1004B000DC0C18BF033202EBDC02C2F1200300FAAD
:1004C00003FC20FA02F001FA03FE40EA0E0021FAD2
:1004D00002F11444BDE600BF70B54FF0FF0C4CF4C0
:1004E000E06C1CEA11541DBF1CEA135594EA0C0F72
:1004F00095EA0C0F00F0DEF82C4481EA030621EAAD
:100500004C5123EA4C5350EA013518BF52EA0335E7
:1005100041F4801143F4801338D0A0FB02CE4FF099
:100520000005E1FB02E506F00042E0FB03E54FF0C9
:100530000006E1FB03569CF0000F18BF4EF0010EC1
:10054000A4F1FF04B6F5007F64F5407404D25FEABD
:100550004E0E6D4146EB060642EAC62141EA555170
:100560004FEAC52040EA5E504FEACE2EB4F1FD0CB2
:1005700088BFBCF5E06F1ED8BEF1004F08BF5FEA30
:10058000500E50F1000041EB045170BD06F00046E2
:1005900046EA010140EA020081EA0301B4EB5C048F
:1005A000C2BFD4EB0C0541EA045170BD41F4801187
:1005B0004FF0000E013C00F3AB8014F1360FDEBFAC
:1005C000002001F0004170BDC4F10004203C35DA88
:1005D0000C341BDC04F11404C4F1200500FA05F30B
:1005E00020FA04F001FA05F240EA020001F00042AC
:1005F00021F0004110EBD37021FA04F642EB060122
:100600005EEA430E08BF20EAD37070BDC4F10C044B
:10061000C4F1200500FA04F320FA05F001FA04F20F
:1006200040EA020001F0004110EBD37041F10001FB
:100630005EEA430E08BF20EAD37070BDC4F1200506
:1006400000FA05F24EEA020E20FA04F301FA05F26E
:1006500043EA020321FA04F001F0004121FA04F216
:1006600020EA020000EBD3705EEA430E08BF20EAE6
:10067000D37070BD94F0000F0FD101F00046400020
:1006800041EB010111F4801F08BF013CF7D041EAA2
:10069000060195F0000F18BF704703F000465200A6
:1006A00043EB030313F4801F08BF013DF7D043EA77
:1006B0000603704794EA0C0F0CEA135518BF95EA2D
:1006C0000C0F0CD050EA410618BF52EA4306D1D1B4
:1006D00081EA030101F000414FF0000070BD50EAD3
:1006E000410606BF1046194652EA430619D094EA5D
:1006F0000C0F02D150EA013613D195EA0C0F05D147
:1007000052EA03361CBF104619460AD181EA03019A
:1007100001F0004141F0FE4141F470014FF0000052
:1007200070BD41F0FE4141F4780170BD70B54FF0ED
:10073000FF0C4CF4E06C1CEA11541DBF1CEA13556D
:1007400094EA0C0F95EA0C0F00F0A7F8A4EB05044F
:1007500081EA030E52EA03354FEA013100F0888046
:100760004FEA03334FF0805545EA131343EA12630F
:100770004FEA022245EA111545EA10654FEA0026C4
:100780000EF000419D4208BF964244F1FD0404F57D
:10079000407402D25B084FEA3202B61A65EB0305D9
:1007A0005B084FEA32024FF480104FF4002CB6EB96
:1007B000020E75EB030E22BFB61A754640EA0C0016
:1007C0005B084FEA3202B6EB020E75EB030E22BF56
:1007D000B61A754640EA5C005B084FEA3202B6EB97
:1007E000020E75EB030E22BFB61A754640EA9C0056
:1007F0005B084FEA3202B6EB020E75EB030E22BF26
:10080000B61A754640EADC0055EA060E18D04FEAE3
:10081000051545EA16754FEA06164FEAC30343EA83
:1008200052734FEAC2025FEA1C1CC0D111F4801F50
:100830000BD141EA00014FF000004FF0004CB6E749
:1008400011F4801F04BF01430020B4F1FD0C88BFE8
:10085000BCF5E06F3FF6AFAEB5EB030C04BFB6EBF3
:10086000020C5FEA500C50F1000041EB045170BDE6
:100870000EF0004E4EEA113114EB5C04C2BFD4EB13
:100880000C0541EA045170BD41F480114FF0000E97
:10089000013C90E645EA060E8DE60CEA135594EA13
:1008A0000C0F08BF95EA0C0F3FF43BAF94EA0C0F16
:1008B0000AD150EA01347FF434AF95EA0C0F7FF48B
:1008C00025AF104619462CE795EA0C0F06D152EADF
:1008D00003353FF4FDAE1046194622E750EA4106C3
:1008E00018BF52EA43067FF4C5AE50EA41047FF4D4
:1008F0000DAF52EA43057FF4EBAE12E74FF0FF3C39
:1009000006E000BF4FF0010C02E000BF4FF0010C09
:100910004DF804CD4FEA410C7FEA6C5C4FEA430C82
:1009200018BF7FEA6C5C1BD001B050EA410C0CBFD1
:1009300052EA430C91EA030F02BF90EA020F002033
:10094000704710F1000F91EA030F58BF994208BF9A
:1009500090422CBFD8176FEAE37040F00100704757
:100960004FEA410C7FEA6C5C02D150EA013C07D1AE
:100970004FEA430C7FEA6C5CD6D152EA033CD3D0F9
:100980005DF8040B704700BF8446104662468C46F3
:100990001946634600E000BF01B5FFF7B7FF002826
:1009A00048BF10F1000F01BD4DF808EDFFF7F4FF4F
:1009B0000CBF012000205DF808FB00BF4DF808EDDA
:1009C000FFF7EAFF34BF012000205DF808FB00BFFD
:1009D0004DF808EDFFF7E0FF94BF012000205DF81F
:1009E00008FB00BF4DF808EDFFF7CEFF94BF0120D4
:1009F00000205DF808FB00BF4DF808EDFFF7C4FFCD
:100A000034BF012000205DF808FB00BF4FEA410C15
:100A10007FEA6C5C02D150EA013C0AD14FEA430CF8
:100A20007FEA6C5C02D152EA033C02D14FF0000035
:100A300070474FF0010070474FEA410212F5001273
:100A400015D211D56FF47873B3EB625212D94FEA15
:100A5000C12343F0004343EA505311F0004F23FAFF
:100A600002F018BF404270474FF00000704750EA54
:100A7000013005D111F0004008BF6FF00040704711
:100A80004FF00000704700BF4FEA4102B2F1E0436F
:100A900024BFB3F5001CDCF1FE5C0DD901F0004C65
:100AA0004FEAC0024CEA5070B2F1004F40EB8300B5
:100AB00008BF20F00100704711F0804F21D113F1E1
:100AC0003872BCBF01F00040704741F480114FEA1A
:100AD0005252C2F11802C2F1200C10FA0CF320FAA3
:100AE00002F018BF40F001004FEAC1234FEAD323C0
:100AF00003FA0CFC40EA0C0023FA02F34FEA43032A
:100B0000CCE77FEA625307D150EA01331EBF4FF0B2
:100B1000FE4040F44000704701F0004040F0FE40CD
:100B200040F40000704700BF80F0004002E000BFCA
:100B300081F0004142001FBF5FEA410392EA030FC8
:100B40007FEA226C7FEA236C6AD04FEA1262D2EB12
:100B50001363C1BFD218414048404140B8BF5B4217
:100B6000192B88BF704710F0004F40F4000020F0B0
:100B70007F4018BF404211F0004F41F4000121F0C6
:100B80007F4118BF494292EA030F3FD0A2F1010210
:100B900041FA03FC10EB0C00C3F1200301FA03F14E
:100BA00000F0004302D5494260EB4000B0F5000F71
:100BB00013D3B0F1807F06D340084FEA310102F130
:100BC0000102FE2A51D2B1F1004F40EBC25008BFE2
:100BD00020F0010040EA03007047490040EB0000AC
:100BE000013A28BFB0F5000FEDD2B0FA80FCACF1AD
:100BF000080CB2EB0C0200FA0CF0AABF00EBC250DA
:100C000052421843BCBFD0401843704792F0000FC7
:100C100081F4000106BF80F400000132013BB5E71A
:100C20004FEA41037FEA226C18BF7FEA236C21D090
:100C300092EA030F04D092F0000F08BF08467047F5
:100C400090EA010F1CBF0020704712F07F4F04D1C3
:100C5000400028BF40F00040704712F100723CBFD6
:100C600000F50000704700F0004343F0FE4040F400
:100C7000000070477FEA226216BF08467FEA2363BE
:100C80000146420206BF5FEA412390EA010F40F4A9
:100C9000800070474FF0000304E000BF10F00043F5
:100CA00048BF40425FEA000C08BF704743F09643DC
:100CB00001464FF000001CE050EA010208BF7047F7
:100CC0004FF000030AE000BF50EA010208BF70477E
:100CD00011F0004302D5404261EB41015FEA010C93
:100CE00002BF84460146002043F0B64308BFA3F18B
:100CF0008053A3F50003BCFA8CF2083AA3EBC2536D
:100D000010DB01FA02FC634400FA02FCC2F120028B
:100D1000BCF1004F20FA02F243EB020008BF20F0C2
:100D20000100704702F1200201FA02FCC2F1200228
:100D300050EA4C0021FA02F243EB020008BF20EA1D
:100D4000DC70704780B588B004AF0346FB710023A8
:100D5000FB73FB799AB2642302930123019307F199
:100D60000F0300930123B421034802F0B5FCFB7B81
:100D700018461037BD4680BD9403002080B586B06C
:100D800004AF03463960FB711346BB71FB799AB21D
:100D9000BB799BB26421029101933B6800930123CC
:100DA000B421034802F098FC00BF0837BD4680BD5F
:100DB0009403002080B586B004AF03460A46FB7159
:100DC0001346BB71FB799AB264230293012301930A
:100DD000BB1D00930123B421034802F083FB00BF35
:100DE0000837BD4680BD00BF9403002080B586B0A3
:100DF00002AF00233B720023FB6026E00020FFF7D8
:100E0000A1FF03463B723B7A03F01003002B02D193
:100E10000023FB6019E0F423FB71FA1D4FF0FF3350
:100E200000930123B4210D4802F05EFA0020FFF781
:100E300089FF03463B723B7A03F09003902B02D06C
:100E40000023FB6001E00123FB60FB68002BD5D091
:100E500000BF00BF1037BD4680BD00BF9403002017
:100E600080B582B000AF0346FB71FB791B01FB71BB
:100E7000FB7919460120FFF79DFF00BF0837BD46EB
:100E800080BD80B584B000AF78600023BB600023D4
:100E9000FB6007F10803082219460220FFF76EFFE6
:100EA0003B7A1B021AB27B7A1BB213431BB29AB273
:100EB0007B681A8000BF1037BD4680BD80B584B006
:100EC00000AF78600023BB600023FB6007F10803DC
:100ED000082219460220FFF751FFBB7A1B021AB203
:100EE000FB7A1BB213431BB29AB27B681A8000BF15
:100EF0001037BD4680BD80B582B000AF0120FFF73E
:100F000021FF0346FB71FB7943F00803FB71FB797A
:100F100019460120FFF74EFF00BF0837BD4680BDD0
:100F200080B485B000AFF860B9607A60FB68064AAB
:100F30001A60BB68054A1A607B6880221A6000BF8D
:100F40001437BD4680BC7047BC0000201001002053
:100F500080B586B002AF0346FB71FB7923F00F0327
:100F6000FB73FB791B01BB73FB7B43F00C03DBB210
:100F70003B72FB7B43F00803DBB27B72BB7B43F02D
:100F80000C03DBB2BB72BB7B43F00803DBB2FB722A
:100F900007F108026423009304234E21034802F062
:100FA000A3F900BF1037BD4680BD00BF400300203D
:100FB00080B586B002AF0346FB71FB7923F00F03C7
:100FC000FB73FB791B01BB73FB7B43F00D03DBB2AF
:100FD0003B72FB7B43F00903DBB27B72BB7B43F0CC
:100FE0000D03DBB2BB72BB7B43F00903DBB2FB72C8
:100FF00007F108026423009304234E21034802F002
:1010000073F900BF1037BD4680BD00BF400300200C
:1010100080B582B000AF8020FFF79AFF00237B608D
:1010200005E02020FFF7C4FF7B6801337B607B680D
:10103000452BF6DD00BF00BF0837BD4680BD80B53B
:1010400082B000AF786039607B68002B03D07B688A
:10105000012B05D009E03B6843F080033B6004E0CE
:101060003B6843F0C0033B6000BF3B68DBB21846FF
:10107000FFF76EFF00BF0837BD4680BD80B500AFEB
:10108000322001F075F93020FFF762FF052001F0F2
:101090006FF93020FFF75CFF012001F069F9302083
:1010A000FFF756FF0A2001F063F92020FFF750FFF9
:1010B0000A2001F05DF92820FFF74AFF012001F026
:1010C00057F90820FFF744FF012001F051F90120F2
:1010D000FFF73EFF012001F04BF9012001F048F934
:1010E0000620FFF735FF012001F042F90C20FFF741
:1010F0002FFF00BF80BD80B582B000AF786006E0F2
:101100007B685A1C7A601B781846FFF751FF7B6892
:101110001B78002BF4D100BF00BF0837BD4680BD4F
:10112000B0B584B000AF78607868FFF77DF902460B
:101130000B464FF000001E49FFF716F802460B461B
:1011400014461D467868FFF76FF902460B462046A5
:101150002946FFF7EBFA02460B4610461946FFF701
:1011600093FC0346FB60F868FFF75EF90EA3D3E932
:10117000002307F0DDFF4FF000020E4BFFF7ACF944
:1011800002460B461046194608F040F802460B4648
:1011900010461946FFF750FC034618461037BD4667
:1011A000B0BD00BFAFF300808B6CE7FBA9F1F8BFC7
:1011B000000014400000594080B500AF1A4801F00B
:1011C00081FA0346194A1360184B1B681846FFF74B
:1011D00061FD03461846FFF727F911A3D3E9002361
:1011E000FFF7A4FA02460B46104619464FF00002DC
:1011F0000F4BFFF771F902460B4610461946FFF7F1
:1012000043FC03460B4A13600A4B1B681846FFF762
:1012100087FF03469AB2084B1A8000BF80BD00BF0B
:101220000000000000FEAF40100300206404002016
:10123000000014406C0400207004002080B500AF52
:101240000448FFF73BFE034B1A88034B1A8000BF8C
:1012500080BD00BF600400206204002080B500AFA4
:101260000448FFF70EFE034B1A88034B1A8000BF99
:1012700080BD00BF680400206A04002090B587B0DC
:1012800002AF3C4684E80F00FFF7C2FE00210020B9
:10129000FFF7D5FE3B4604330E4A10210E4807F0F7
:1012A00063FA0D48FFF727FF00210120FFF7C7FE73
:1012B000FB891A463B4600931346084A102106480C
:1012C00007F052FA0448FFF716FF00BF1437BD4677
:1012D00090BD00BFF09F000874040020F49F000838
:1012E00080B500AF1B4B1B881A461B491B4807F0F3
:1012F0006FFA1A48FEF72CFF03469AB24FF0FF33FD
:101300001649174804F016F8164B1B881A4616495A
:10131000124807F05DFA1148FEF71AFF03469AB229
:101320004FF0FF330D490E4804F004F80F4B1B88B3
:101330001A460F49094807F04BFA0848FEF708FF1C
:1013400003469AB24FF0FF330449054803F0F2FF19
:1013500000BF80BD62040020FC9F000884040020C0
:10136000E8030020700400200CA000086A0400209C
:1013700018A0000880B582B000AF78607B681B6859
:10138000084A934204D1084B1B68184604F0A8FF92
:1013900001220649064804F058F800BF0837BD4648
:1013A00080BD00BF003801405C040020AC04002078
:1013B000E8030020B0B5C6B000AF00F0A7FF00F012
:1013C00027F900F039FA00F073F900F0AFF900F0F6
:1013D000DBF900F007FAFFF709FD0120FFF740FDF8
:1013E000FFF789FD724801F0BFF8FFF747FE0122C1
:1013F0007049714804F029F80023C7F81031002320
:10140000C7F8143107F58873184604F04CFE0346FC
:101410006A4A13600023C7F808310023C7F80C316B
:1014200007F58473184604F03EFE0346644A1360D1
:101430000023C7F800310023C7F8043107F5807393
:101440000121184604F0CCFE03465E4A13605E4B51
:1014500007F1E4041D460FCD0FC495E8070084E8AA
:10146000070007F1E4030021184604F0BCFD034621
:10147000564A1360564B07F1C8041D460FCD0FC4E2
:1014800095E8070084E8070007F1C8030021184623
:1014900004F0A9FD03464F4A13604F4B07F1AC041B
:1014A0001D460FCD0FC495E8070084E8070007F13B
:1014B000AC030021184604F096FD0346474A13602A
:1014C000474B07F190041D460FCD0FC495E8070068
:1014D00084E8070007F190030021184604F083FD1B
:1014E0000346404A1360404B07F174041D460FCD7C
:1014F0000FC495E8070084E8070007F17403002192
:10150000184604F070FD0346384A1360384B07F163
:1015100058041D460FCD0FC495E8070084E8070066
:1015200007F158030021184604F05DFD0346314AD7
:101530001360314B07F13C041D460FCD0FC495E8F5
:10154000070084E8070007F13C030021184604F077
:101550004AFD0346294A1360294B07F120041D4622
:101560000FCD0FC495E8070084E8070007F12003BA
:101570000021184604F037FD0346224A136007F5A0
:101580008C73A3F58A73204A1C4615460FCD0FC4F1
:1015900095E8070084E807003B1D0021184604F089
:1015A00022FD0346194A136004F006FD00BFFDE763
:1015B00010030020AC040020E803002054040020A5
:1015C000580400205C04002034A0000830040020EF
:1015D00058A00008340400207CA000083804002033
:1015E000A4A000083C040020CCA000084004002077
:1015F000F4A000084404002018A1000848040020BA
:101600003CA100084C04002060A100085004002008
:1016100080B594B000AF07F12803282200211846B6
:1016200007F0F6F807F1140300221A605A609A6076
:10163000DA601A613B1D00221A605A609A60DA6013
:101640000223BB620123BB631023FB6300237B6483
:1016500007F12803184602F0E9FE0346002B01D0EB
:1016600000F095FB0F237B610023BB610023FB612E
:1016700000233B6200237B6207F11403002118461C
:1016800003F056F90346002B01D000F080FB022343
:101690007B600023FB603B1D184603F007FB0346FD
:1016A000002B01D000F073FB00BF5037BD4680BD5A
:1016B00080B584B000AF3B1D00221A605A609A606A
:1016C000184B194A1A60174B00229A60154B0122D9
:1016D0001A73144B00221A75124B4FF46022DA6110
:1016E000104B00225A600F4B01221A610D4800F086
:1016F00063FE0346002B01D000F049FB00237B6012
:101700000123BB600023FB603B1D1946054800F028
:10171000E5FF0346002B01D000F039FB00BF103776
:10172000BD4680BD100300200024014080B500AFFD
:10173000124B134A1A60114B124A5A600F4B002287
:101740009A600E4B0022DA600C4B4FF480421A6113
:101750000A4B00225A61094B00229A61074B002272
:10176000DA61064B00221A62044801F079FC034654
:10177000002B01D000F00BFB00BF80BD4003002018
:1017800000540040A086010080B500AF124B134A00
:101790001A60114B124A5A600F4B00229A600E4B8E
:1017A0000022DA600C4B4FF480421A610A4B00228F
:1017B0005A61094B00229A61074B0022DA61064BFD
:1017C00000221A62044801F04BFC0346002B01D0B2
:1017D00000F0DDFA00BF80BD9403002000580040F7
:1017E000A086010080B500AF114B124A1A60104B61
:1017F0004FF4E1325A600E4B00229A600C4B0022EB
:10180000DA600B4B00221A61094B0C225A61084B1B
:1018100000229A61064B0022DA61054803F03AFD86
:101820000346002B01D000F0B2FA00BF80BD00BF1C
:10183000E80300200038014080B588B000AF07F110
:10184000100300221A605A609A60DA601E4B9B698E
:101850001D4A43F0200393611B4B9B6903F0200357
:10186000FB60FB68184B9B69174A43F004039361C4
:10187000154B9B6903F00403BB60BB68124B9B696B
:10188000114A43F0080393610F4B9B6903F008036F
:101890007B607B6801224FF4E0410C4801F0C8FBFB
:1018A0004FF4E0433B6101237B610023BB610223D2
:1018B000FB6107F110031946044801F035FA00BF37
:1018C0002037BD4680BD00BF00100240000C014023
:1018D00080B582B000AF78601D4B1B684FF0FF31C0
:1018E000184604F0F9FB0346002B2CD104F06BFBE7
:1018F00003461A461749184806F06AFF4FF0FF33AF
:1019000019221549154803F015FDFFF797FC144BF4
:101910001A88144BDA8104F056FB03461A46124922
:101920000D4806F055FF4FF0FF3319220A490B48C6
:1019300003F000FD40F2DE3000F01AFD044B1B689E
:10194000184604F017FC40F6B33004F098FBC3E7E8
:10195000540400207CA1000884040020E803002037
:10196000620400202000002090A1000880B582B011
:1019700000AF78601D4B1B684FF0FF31184604F034
:10198000ABFB0346002B2CD104F01DFB03461A468B
:101990001749184806F01CFF4FF0FF33192215496C
:1019A000154803F0C7FCFFF759FC144B1A88144B79
:1019B000DA8104F008FB03461A4612490D4806F086
:1019C00007FF4FF0FF3319220A490B4803F0B2FC1E
:1019D00040F2DE3000F0CCFC044B1B68184604F0EB
:1019E000C9FB40F6B33004F04AFBC3E754040020BF
:1019F000A4A1000884040020E80300206A04002059
:101A000010000020B8A1000880B582B000AF786057
:101A10001D4B1B684FF0FF31184604F05DFB034679
:101A2000002B2CD104F0CFFA03461A461749184868
:101A300006F0CEFE4FF0FF3319221549154803F08A
:101A400079FCFFF7B9FB144B1A88144BDA8104F0C8
:101A5000BAFA03461A4612490D4806F0B9FE4FF08D
:101A6000FF3319220A490B4803F064FC40F2DE30D0
:101A700000F07EFC044B1B68184604F07BFB40F62C
:101A8000B33004F0FCFAC3E754040020CCA10008F2
:101A900084040020E80300207004002000000020DF
:101AA000E0A1000880B582B000AF78600D4B1B68E4
:101AB0004FF0FF31184604F00FFB0346002B0CD10A
:101AC000094B0FCBFFF7DAFB40F2B63000F050FCC9
:101AD000064B1B68184604F04DFB40F6863004F0B8
:101AE000CEFAE3E758040020200000205404002030
:101AF00080B582B000AF786004F065FA03461A46FC
:101B00001049114806F064FE4FF0FF3319220E49C8
:101B10000E4803F00FFCFFF7E3FB04F054FA034612
:101B20001A460B49084806F053FE4FF0FF331922BE
:101B30000549064803F0FEFB40F6B83004F09FFA72
:101B400000BFD9E7F4A1000884040020E8030020C6
:101B500004A2000880B582B000AF7860394B1B68E2
:101B60004FF0FF31184604F06DFB04F02CFA0346E9
:101B70001A463549354806F02BFE4FF0FF3319223F
:101B80003249334803F0D6FB324B1B78312B14D14A
:101B9000FFF754FB304B1B881A4630492B4806F0A0
:101BA00017FE2A48FEF7D4FA03469AB24FF0FF33E5
:101BB0002649274803F0BEFB30E0264B1B78322B2A
:101BC00014D1FFF74BFB264B1B881A4625491F48AB
:101BD00006F0FEFD1D48FEF7BBFA03469AB24FF031
:101BE000FF331A491A4803F0A5FB17E0194B1B787D
:101BF000332B13D1FFF7E0FA1B4B1B881A461B4906
:101C0000124806F0E5FD1148FEF7A2FA03469AB223
:101C10004FF0FF330D490E4803F08CFB04F0D3F96D
:101C200003461A461249094806F0D2FD4FF0FF3329
:101C300019220649064803F07DFB4FF47A7004F040
:101C40001EFA8BE75C04002018A200088404002020
:101C5000E8030020AC04002062040020FC9F000880
:101C60006A04002018A00008700400200CA00008DE
:101C700028A2000880B582B000AF78600D4B1B68C9
:101C80004FF0FF31184604F027FA0346002B0CD121
:101C9000094B0FCBFFF7F2FA40F2B63000F068FBC9
:101CA000064B1B68184604F065FA40F6863004F0CF
:101CB000E6F9E3E758040020000000205404002067
:101CC00080B582B000AF78600D4B1B684FF0FF31DC
:101CD000184604F001FA0346002B0CD1094B0FCB38
:101CE000FFF7CCFA40F2B63000F042FB064B1B681F
:101CF000184604F03FFA40F6863004F0C0F9E3E7F6
:101D000058040020100000205404002080B582B048
:101D100000AF786004F057F903461A46104911489D
:101D200006F056FD4FF0FF3319220E490E4803F01E
:101D300001FB00F095FA04F046F903461A460B49F8
:101D4000084806F045FD4FF0FF33192205490648C3
:101D500003F0F0FA4FF47A7004F091F900BFD9E77C
:101D600038A2000884040020E80300204CA20008E8
:101D700080B582B000AF78607B681B68B3F1804F9C
:101D800001D100F0D9FA00BF0837BD4680BD80B44C
:101D900000AF72B600BF00BFFDE7000080B584B0A1
:101DA00000AF184B9B69174A43F001039361154B31
:101DB0009B6903F00103BB60BB68124BDB69114AEE
:101DC00043F08053D3610F4BDB6903F080537B609A
:101DD0007B6800220F216FF0010000F0C8FE0A4B63
:101DE0005B68FB60FB6823F0E063FB60FB6843F02B
:101DF0000073FB60044AFB68536000BF1037BD46A8
:101E000080BD00BF001002400000014080B588B0D6
:101E100000AF786007F1100300221A605A609A60E0
:101E2000DA607B681B68144A934221D1134B9B698B
:101E3000124A43F400739361104B9B6903F40073DF
:101E4000FB60FB680D4B9B690C4A43F004039361F4
:101E50000A4B9B6903F00403BB60BB6801233B6131
:101E600003237B6107F110031946054800F05CFF6E
:101E700000BF2037BD4680BD002401400010024055
:101E80000008014080B58AB000AF786007F1180300
:101E900000221A605A609A60DA607B681B682B4ADD
:101EA000934224D12A4B9B69294A43F0080393614A
:101EB000274B9B6903F008037B617B69C023BB61EF
:101EC0001223FB6103237B6207F1180319462148A3
:101ED00000F02AFF1E4BDB691D4A43F40013D36157
:101EE0001B4BDB6903F400133B613B6929E07B6812
:101EF0001B68194A934224D1154B9B69144A43F03D
:101F000008039361124B9B6903F00803FB60FB68B5
:101F10004FF44063BB611223FB6103237B6207F133
:101F2000180319460B4800F0FFFE094BDB69084A0D
:101F300043F48003D361064BDB6903F48003BB6089
:101F4000BB6800BF2837BD4680BD00BF00540040BD
:101F500000100240000C01400058004080B588B0DD
:101F600000AF786007F1100300221A605A609A608F
:101F7000DA607B681B68204A934239D11F4B9B690A
:101F80001E4A43F4804393611C4B9B6903F48043D6
:101F9000FB60FB68194B9B69184A43F0040393618B
:101FA000164B9B6903F00403BB60BB684FF40073DE
:101FB0003B6102237B610323FB6107F11003194698
:101FC0000F4800F0B1FE4FF480633B6100237B615A
:101FD0000023BB6107F110031946094800F0A4FE75
:101FE00000220521252000F0C2FD252000F0DBFDA8
:101FF00000BF2037BD4680BD0038014000100240C0
:102000000008014080B58EB000AF78600023FB620D
:102010000023BB62002387F83330344BDB69334A3B
:1020200043F00103D361314BDB6903F00103FB6033
:10203000FB6807F1100207F114031146184602F07D
:10204000E7FD3B6AFB62FB6A002B03D102F0B8FD9F
:10205000786304E002F0B4FD03465B007B637B6BB6
:10206000234AA2FB03239B0C013BBB62214B4FF095
:1020700080421A601F4B40F2E732DA601D4ABB6AA9
:1020800053601C4B00221A611A4B00229A60194BB4
:1020900000229A61174802F0BFFE034687F83330EA
:1020A00097F83330002B1BD1124802F00DFF034686
:1020B00087F8333097F83330002B11D11C2000F013
:1020C00072FD7B680F2B08D8002279681C2000F075
:1020D0004EFD094A7B68136002E0012387F8333024
:1020E00097F8333018463837BD4680BD001002409F
:1020F00083DE1B43B00400203400002080B400AF16
:1021000000BFFDE780B400AF00BFFDE780B400AFC3
:1021100000BFFDE780B400AF00BFFDE780B400AFB3
:1021200000BFFDE780B400AF00BFBD4680BC704774
:1021300080B500AF024802F019FF00BF80BD00BFAC
:10214000B004002080B500AF024803F0A3F900BF3F
:1021500080BD00BFE803002080B586B000AF786086
:10216000144A154BD31A7B617B693B61134B1B6887
:10217000002B02D1114B124A1A60104B1A687B686F
:1021800013443A699A4207D206F04AFB03460C22EE
:102190001A604FF0FF3309E0084B1B68FB60074BE8
:1021A0001A687B681344054A1360FB6818461837A1
:1021B000BD4680BD0050002000040000F80400204F
:1021C000A81E002080B400AF00BFBD4680BC704791
:1021D00080B500AF00224FF48051084800F028FF7E
:1021E00001224FF40051054800F022FF01224FF474
:1021F0008041024800F01CFF00BF80BD000C014080
:1022000080B500AF01224FF48051084800F010FF64
:1022100000224FF40051054800F00AFF01224FF45C
:102220008041024800F004FF00BF80BD000C014067
:1022300080B500AF01224FF48051084800F0F8FE4D
:1022400001224FF40051054800F0F2FE00224FF445
:102250008041024800F0ECFE00BF80BD000C014050
:1022600080B500AF134B1B88B3F57A7F0BD8124BA8
:102270001B88192B07D8114B1B88B3F5967F02D802
:10228000FFF7A6FF13E00B4B1B88B3F5FA6F08D2DC
:10229000094B1B88312B04D8084B1B88B3F57A7F78
:1022A00002D3FFF7C5FF02E0FFF7AAFF00BF00BFA0
:1022B00080BD00BF6A04002070040020620400207A
:1022C000FFF780FF0B480C490C4A002302E0D4586A
:1022D000C4500433C4188C42F9D3094A094C002372
:1022E00001E013600432A242FBD306F09FFAFFF72D
:1022F00061F8704700000020A000002008A300083B
:10230000A0000020A81E0020FEE7000080B500AF5E
:10231000084B1B68074A43F010031360032000F0CA
:102320001BFC0F20FFF76EFEFFF738FD0023184659
:1023300080BD00BF0020024080B400AF054B1B7879
:102340001A46054B1B681344034A136000BFBD4681
:1023500080BC704738000020FC04002080B400AF2F
:10236000024B1B681846BD4680BC7047FC04002029
:1023700080B584B000AF7860FFF7F0FFB8607B688D
:10238000FB60FB68B3F1FF3F05D00A4B1B781A4690
:10239000FB681344FB6000BFFFF7E0FF0246BB6829
:1023A000D31AFA689A42F7D800BF00BF1037BD466B
:1023B00080BD00BF3800002080B586B000AF7860D7
:1023C0000023FB7500233B610023BB600023FB60FF
:1023D0007B68002B01D10123BEE07B689B68002B4A
:1023E0007B689B6A002B09D17B680022DA627B68DC
:1023F000002283F824207868FFF708FD786800F051
:10240000BFFA0346FB757B689B6A03F01003002B41
:1024100040F09980FB7D002B40F095807B689B6AA3
:1024200023F4885323F0020343F002027B689A628C
:102430007B685A687B68DB691A437B681B7B5B009F
:102440001343BA681343BB607B689B68B3F5807F16
:1024500003D07B689B68012B02D14FF4807300E0AE
:1024600000233A6913433B617B681B7D012B19D123
:102470007B681B7B002B09D17B689B69013B5A035E
:102480003B69134343F400633B610BE07B689B6A49
:1024900043F020027B689A627B68DB6A43F00102AA
:1024A0007B68DA627B681B685B6823F469417B6840
:1024B0001B683A690A435A607B681B689A68284B14
:1024C00013407A681268B9680B4393607B689B6815
:1024D000B3F5807F03D07B689B68012B04D17B68B8
:1024E0001B69013B1B05FB607B681B68DB6A23F4EF
:1024F00070017B681B68FA680A43DA627B681B68B4
:102500009A68184B1340BA689A420BD17B68002234
:10251000DA627B689B6A23F0030343F001027B6865
:102520009A6218E07B689B6A23F0120343F0100262
:102530007B689A627B68DB6A43F001027B68DA623F
:102540000123FB7507E07B689B6A43F010027B6800
:102550009A620123FB75FB7D18461837BD4680BD86
:10256000FDF7E1FFFE0E1FFF80B584B000AF78607D
:102570000023FB737B6893F82430012B01D10223E5
:1025800098E07B68012283F82420786800F09EF9A7
:102590000346FB73FB7B002B40F087807B689B6AC4
:1025A00023F4407323F0010343F480727B689A6242
:1025B0007B681B68414A934205D1414B5B6803F439
:1025C0007023002B15D17B689B6A23F480127B68F3
:1025D0009A627B681B685B6803F48063002B26D0DB
:1025E0007B689B6A23F4405343F480527B689A6271
:1025F0001DE07B689B6A43F480127B689A627B686B
:102600001B682F4A934204D07B681B682B4A934275
:102610000DD12B4B5B6803F48063002B07D07B68E4
:102620009B6A23F4405343F480527B689A627B6830
:102630009B6A03F48053002B06D07B68DB6A23F08F
:1026400006027B68DA6202E07B680022DA627B685D
:10265000002283F824207B681B686FF002021A6056
:102660007B681B689B6803F46023B3F5602F13D16C
:102670007B681B68114A934205D1114B5B6803F4D8
:102680007023002B08D17B681B689A687B681B68E5
:1026900042F4A0029A600CE07B681B689A687B6831
:1026A0001B6842F480129A6003E07B68002283F882
:1026B0002420FB7B18461037BD4680BD0028014012
:1026C0000024014080B483B000AF78607B681B6851
:1026D000DB6C18460C37BD4680BC704780B485B0B3
:1026E00000AF786039600023FB730023BB607B6818
:1026F00093F82430012B01D10223DCE07B68012216
:1027000083F824203B685B68062B1CD87B681B6819
:10271000596B3B685A6813469B001344053B1F22C4
:1027200002FA03F3DB4319403B6818683B685A68B8
:1027300013469B001344053B00FA03F27B681B68B9
:102740000A435A633CE03B685B680C2B1CD87B68EF
:102750001B68196B3B685A6813469B001344233B64
:102760001F2202FA03F3DB4319403B6818683B68F9
:102770005A6813469B001344233B00FA03F27B681C
:102780001B680A431A631BE07B681B68D96A3B68B5
:102790005A6813469B001344413B1F2202FA03F37D
:1027A000DB4319403B6818683B685A6813469B0036
:1027B0001344413B00FA03F27B681B680A43DA6268
:1027C0003B681B68092B1CD97B681B68D9683B6870
:1027D0001A6813465B0013441E3B072202FA03F3F8
:1027E000DB4319403B6898683B681A6813465B00F6
:1027F00013441E3B00FA03F27B681B680A43DA604D
:1028000019E07B681B6819693B681A6813465B000E
:102810001344072202FA03F3DB4319403B6898682C
:102820003B681A6813465B00134400FA03F27B68A6
:102830001B680A431A613B681B68102B03D03B6876
:102840001B68112B32D17B681B681D4A934225D12E
:102850007B681B689B6803F40003002B26D17B6810
:102860001B689A687B681B6842F400029A603B68A8
:102870001B68102B1AD1134B1B68134AA2FB0323AE
:102880009A0C13469B0013445B00BB6002E0BB68DC
:10289000013BBB60BB68002BF9D107E07B689B6AFA
:1028A00043F020027B689A620123FB737B6800225D
:1028B00083F82420FB7B18461437BD4680BC704744
:1028C000002401403000002083DE1B4380B584B02B
:1028D00000AF78600023FB600023BB607B681B684F
:1028E0009B6803F00103012B40D07B681B689A684A
:1028F0007B681B6842F001029A601F4B1B681F4AED
:10290000A2FB03239B0CBB6002E0BB68013BBB60E6
:10291000BB68002BF9D1FFF721FDF8601FE0FFF73E
:102920001DFD0246FB68D31A022B18D97B681B6871
:102930009B6803F00103012B11D07B689B6A43F075
:1029400010027B689A627B68DB6A43F001027B6855
:10295000DA627B68002283F82420012307E07B6889
:102960001B689B6803F00103012BD8D10023184694
:102970001037BD4680BD00BF3000002083DE1B4302
:1029800080B584B000AF78600023FB607B681B6873
:102990009B6803F00103012B2ED17B681B689A68AA
:1029A0007B681B6822F001029A60FFF7D7FCF86091
:1029B0001BE0FFF7D3FC0246FB68D31A022B14D9A5
:1029C0007B681B689B6803F00103012B0DD17B68BA
:1029D0009B6A43F010027B689A627B68DB6A43F073
:1029E00001027B68DA62012307E07B681B689B6851
:1029F00003F00103012BDCD0002318461037BD463D
:102A000080BD000080B485B000AF78607B6803F0C3
:102A10000703FB600C4BDB68BB60BA684FF6FF0333
:102A20001340BB60FB681A02BB68134343F0BF63EB
:102A300043F40033BB60044ABB68D36000BF143763
:102A4000BD4680BC704700BF00ED00E080B400AF21
:102A5000044BDB681B0A03F007031846BD4680BC25
:102A6000704700BF00ED00E080B483B000AF0346C4
:102A7000FB7197F90730002B0BDBFB7903F01F028A
:102A8000064997F907305B09012000FA02F241F884
:102A9000232000BF0C37BD4680BC704700E100E03A
:102AA00080B483B000AF03463960FB7197F90730FB
:102AB000002B0ADB3B68DAB20C4997F907301201A8
:102AC000D2B20B4483F800230AE03B68DAB208492B
:102AD000FB7903F00F03043B1201D2B20B441A76C8
:102AE00000BF0C37BD4680BC704700BF00E100E06E
:102AF00000ED00E080B489B000AFF860B9607A60A2
:102B0000FB6803F00703FB61FB69C3F10703042BB8
:102B100028BF0423BB61FB690433062B02D9FB6980
:102B2000033B00E000237B614FF0FF32BB6902FAF8
:102B300003F3DA43BB681A407B699A404FF0FF31D8
:102B40007B6901FA03F3D9437B680B4013431846B2
:102B50002437BD4680BC704780B582B000AF786036
:102B60007868FFF74FFF00BF0837BD4680BD80B5CE
:102B700086B000AF0346B9607A60FB7300237B61C7
:102B8000FFF764FF78617A68B9687869FFF7B2FF88
:102B9000024697F90F3011461846FFF781FF00BF34
:102BA0001837BD4680BD80B582B000AF0346FB71CB
:102BB00097F907301846FFF757FF00BF0837BD46A3
:102BC00080BD80B485B000AF78600023FB737B6864
:102BD00093F82130DBB2022B08D07B6804229A6381
:102BE0007B68002283F82020012320E07B681B689B
:102BF0001A687B681B6822F00E021A607B681B68EB
:102C00001A687B681B6822F001021A607B681A6CE4
:102C10007B68DB6B012101FA02F25A607B680122BA
:102C200083F821207B68002283F82020FB7B184654
:102C30001437BD4680BC704780B584B000AF786063
:102C40000023FB737B6893F82130DBB2022B05D0A5
:102C50007B6804229A630123FB7351E07B681B6845
:102C60001A687B681B6822F00E021A607B681B687A
:102C70001A687B681B6822F001021A607B681B6877
:102C8000224A934229D07B681B68214A934222D072
:102C90007B681B681F4A93421AD07B681B681E4AD8
:102CA000934212D07B681B681C4A93420AD07B680F
:102CB0001B681B4A934202D14FF480130EE04FF081
:102CC00080730BE04FF4803308E04FF4805305E04D
:102CD0004FF4807302E0102300E00123114A536097
:102CE0007B68012283F821207B68002283F8202062
:102CF0007B685B6B002B03D07B685B6B78689847C5
:102D0000FB7B18461037BD4680BD00BF080002405F
:102D10001C000240300002404400024058000240C3
:102D20006C0002400000024080B48BB000AF7860BD
:102D3000396000237B6200233B6269E101227B6AE8
:102D400002FA03F3FB613B681B68FA691340BB613D
:102D5000BA69FB699A4240F058813B685B689A4ABD
:102D600093425ED0984A934275D8984A934258D07D
:102D7000964A93426FD8964A934252D0944A9342CD
:102D800069D8944A93424CD0924A934263D8924A6B
:102D9000934246D0904A93425DD8122B2AD8122BE8
:102DA00059D801A252F823F0232E0008FD2D000867
:102DB0000F2E0008512E0008572E0008572E00082D
:102DC000572E0008572E0008572E0008572E0008CF
:102DD000572E0008572E0008572E0008572E0008BF
:102DE000572E0008572E0008572E0008052E000801
:102DF000192E0008794A934213D02CE03B68DB6817
:102E00003B6229E03B68DB6804333B6224E03B68BB
:102E1000DB6808333B621FE03B68DB680C333B62D6
:102E20001AE03B689B68002B02D104233B6213E04D
:102E30003B689B68012B05D108233B627B68FA69DC
:102E40001A6109E008233B627B68FA695A6103E072
:102E500000233B6200E000BFBB69FF2B01D87B6809
:102E600001E07B6804337B61BB69FF2B02D87B6A7E
:102E70009B0002E07B6A083B9B003B617B691A6810
:102E80000F213B6901FA03F3DB431A40396A3B69BE
:102E900001FA03F31A437B691A603B685B6803F02D
:102EA0008053002B00F0B1804D4B9B694C4A43F09E
:102EB000010393614A4B9B6903F00103BB60BB684C
:102EC000484A7B6A9B08023352F82330FB607B6AD6
:102ED00003F003039B000F2202FA03F3DB43FA68BB
:102EE0001340FB607B68404A934213D07B683F4AA3
:102EF00093420DD07B683E4A934207D07B683D4A9F
:102F0000934201D1032306E0042304E0022302E0FC
:102F1000012300E000237A6A02F00302920093404A
:102F2000FA681343FB602F497B6A9B080233FA68F7
:102F300041F823203B685B6803F48013002B06D024
:102F40002D4B9A682C49BB6913438B6006E02A4BD2
:102F50009A68BB69DB43284913408B603B685B6818
:102F600003F40013002B06D0234BDA682249BB6917
:102F70001343CB6006E0204BDA68BB69DB431E4994
:102F80001340CB603B685B6803F40033002B06D032
:102F9000194B5A681849BB6913434B6006E0164B3E
:102FA0005A68BB69DB43144913404B603B685B685C
:102FB00003F48033002B21D00F4B1A680E49BB69F4
:102FC00013430B6021E000BF0000321000003110FD
:102FD000000022100000211000001210000011104B
:102FE000001002400000014000080140000C0140B8
:102FF0000010014000140140000401400B4B1A680E
:10300000BB69DB43094913400B607B6A01337B6278
:103010003B681A687B6A22FA03F3002B7FF48EAEBA
:1030200000BF00BF2C37BD4680BC70470004014084
:1030300080B483B000AF78600B467B8013467B7012
:103040007B78002B03D07A887B681A6103E07B8849
:103050001A047B681A6100BF0C37BD4680BC7047FC
:1030600080B584B000AF78607B68002B01D101236C
:103070002BE17B6893F83D30DBB2002B06D17B68F7
:10308000002283F83C207868FEF7FCFE7B6824224F
:1030900083F83D207B681B681A687B681B6822F0F8
:1030A00001021A607B681B681A687B681B6842F41F
:1030B00000421A607B681B681A687B681B6822F4F0
:1030C00000421A6001F07CFDF8607B685B68814A11
:1030D000934207D8FB68804A934294BF01230023A0
:1030E000DBB206E0FB687D4A934294BF01230023D4
:1030F000DBB2002B01D00123E7E0FB68784AA2FB9A
:1031000003239B0CBB607B681B685B6823F03F015B
:103110007B681B68BA680A435A607B681B681B6A35
:1031200023F03F017B685B686A4A934202D8BB6820
:10313000013309E0BB684FF4967202FB03F3694A5E
:10314000A2FB03239B0901337A6812680B431362C5
:103150007B681B68DB6923F44F4222F0FF027B6827
:103160005B685C498B4219D8FB68591E7B685B68B9
:103170005B00B1FBF3F3591C40F6FC730B40002BD2
:103180000AD0FB68591E7B685B685B00B1FBF3F3F8
:103190000133C3F30B0351E004234FE07B689B68CA
:1031A000002B11D1FB68581E7B6859680B465B00E9
:1031B0000B44B0FBF3F30133C3F30B03002B0CBF41
:1031C00001230023DBB212E0FB68581E7B685968BC
:1031D0000B469B000B4499000B44B0FBF3F3013307
:1031E000C3F30B03002B0CBF01230023DBB2002B26
:1031F00001D0012322E07B689B68002B0ED1FB6885
:10320000581E7B6859680B465B000B44B0FBF3F318
:103210000133C3F30B0343F400430FE0FB68581E74
:103220007B6859680B469B000B4499000B44B0FB2C
:10323000F3F30133C3F30B0343F4404379680968A4
:103240001343CB617B681B681B6823F0C0017B685C
:10325000DA697B681B6A1A437B681B680A431A6039
:103260007B681B689B6823F4034323F0FF037A68A1
:1032700011697A68D26811437A6812680B439360C7
:103280007B681B68DB6823F0FF017B685A697B68F9
:103290009B691A437B681B680A43DA607B681B687A
:1032A0001A687B681B6842F001021A607B68002282
:1032B0001A647B68202283F83D207B6800221A6311
:1032C0007B68002283F83E20002318461037BD4655
:1032D00080BD00BFA08601007F841E00FF083D0066
:1032E00083DE1B43D34D621080B588B002AFF86017
:1032F0007A601A460B467B8113463B81FFF72EF816
:103300007861FB6893F83D30DBB2202B40F0E08021
:103310007B690093192301227049F86800F050FE80
:103320000346002B01D00223D3E0FB6893F83C3026
:10333000012B01D10223CCE0FB68012283F83C2061
:10334000FB681B681B6803F00103012B07D0FB68B7
:103350001B681A68FB681B6842F001021A60FB6870
:103360001B681A68FB681B6822F400621A60FB681D
:10337000212283F83D20FB68102283F83E20FB6861
:1033800000221A64FB687A685A62FB683A895A8597
:10339000FB685B8D9AB2FB681A85FB68504ADA625B
:1033A00079897B693A6AF86800F00AFC0346002BC9
:1033B00001D001238DE000233B61FB681B685B6942
:1033C0003B61FB681B689B693B613B6966E07A690E
:1033D000396AF86800F00EFF0346002B0DD0FB6839
:1033E0001B6C042B07D1FB681B681A68FB681B6801
:1033F00042F400721A6001236BE0FB685B6A1A7882
:10340000FB681B681A61FB685B6A5A1CFB685A629E
:10341000FB685B8D9BB2013B9AB2FB685A85FB68E7
:103420001B8D013B9AB2FB681A85FB681B685B69C0
:1034300003F00403042B1BD1FB681B8D002B17D05A
:10344000FB685B6A1A78FB681B681A61FB685B6A39
:103450005A1CFB685A62FB685B8D9BB2013B9AB2B7
:10346000FB685A85FB681B8D013B9AB2FB681A8585
:103470007A69396AF86800F005FF0346002B0DD021
:10348000FB681B6C042B07D1FB681B681A68FB6880
:103490001B6842F400721A6001231AE0FB681B8D5E
:1034A000002B94D1FB681B681A68FB681B6842F408
:1034B00000721A60FB68202283F83D20FB6800221E
:1034C00083F83E20FB68002283F83C20002300E0C4
:1034D000022318461837BD4680BD00BF0200100009
:1034E0000000FFFF80B588B002AFF86008461146C3
:1034F0001A4603467B810B463B811346FB80FEF751
:103500002DFF7861FB6893F83D30DBB2202B40F053
:10351000D9807B690093192301226D49F86800F076
:103520004FFD0346002B01D00223CCE0FB6893F84B
:103530003C30012B01D10223C5E0FB68012283F856
:103540003C20FB681B681B6803F00103012B07D0BC
:10355000FB681B681A68FB681B6842F001021A606E
:10356000FB681B681A68FB681B6822F400621A601B
:10357000FB68212283F83D20FB68402283F83E202F
:10358000FB6800221A64FB683A6A5A62FB68BA8CCC
:103590005A85FB685B8D9AB2FB681A85FB684D4AB9
:1035A000DA62F8883A8979897B690193BB6A00936A
:1035B0000346F86800F086FB0346002B52D0012337
:1035C00081E07A69B96AF86800F014FE0346002BBE
:1035D0000DD0FB681B6C042B07D1FB681B681A68B5
:1035E000FB681B6842F400721A6001236BE0FB6801
:1035F0005B6A1A78FB681B681A61FB685B6A5A1C75
:10360000FB685A62FB681B8D013B9AB2FB681A8506
:10361000FB685B8D9BB2013B9AB2FB685A85FB68E5
:103620001B685B6903F00403042B1BD1FB681B8D33
:10363000002B17D0FB685B6A1A78FB681B681A615D
:10364000FB685B6A5A1CFB685A62FB681B8D013B76
:103650009AB2FB681A85FB685B8D9BB2013B9AB2FC
:10366000FB685A85FB681B8D002BAAD17A69B96A61
:10367000F86800F007FE0346002B0DD0FB681B6CBA
:10368000042B07D1FB681B681A68FB681B6842F4AF
:1036900000721A60012316E0FB681B681A68FB6859
:1036A0001B6842F400721A60FB68202283F83D20F8
:1036B000FB68002283F83E20FB68002283F83C2050
:1036C000002300E0022318461837BD4680BD00BF26
:1036D000020010000000FFFF80B58CB002AFF86060
:1036E000084611461A4603467B810B463B8113462A
:1036F000FB8000233B62FEF731FE7862FB6893F8A3
:103700003D30DBB2202B40F050827B6A00931923BE
:1037100001228249F86800F053FC0346002B01D0D7
:10372000022343E2FB6893F83C30012B01D10223D2
:103730003CE2FB68012283F83C20FB681B681B68A5
:1037400003F00103012B07D0FB681B681A68FB68B4
:103750001B6842F001021A60FB681B681A68FB686C
:103760001B6822F400621A60FB68222283F83D2065
:10377000FB68402283F83E20FB6800221A64FB6845
:103780003A6B5A62FB68BA8E5A85FB685B8D9AB2B7
:10379000FB681A85FB68624ADA62F8883A89798997
:1037A0007B6A0193BB6B00930346F86800F020FB33
:1037B0000346002B01D00123F8E1FB681B8D002B91
:1037C00013D10023FB61FB681B685B69FB61FB682D
:1037D0001B689B69FB61FB69FB681B681A68FB68D7
:1037E0001B6842F400721A60CCE1FB681B8D012B50
:1037F0001ED1FB681B681A68FB681B6822F4806294
:103800001A6072B600BF0023BB61FB681B685B696E
:10381000BB61FB681B689B69BB61BB69FB681B687C
:103820001A68FB681B6842F400721A6062B635E0E1
:10383000FB681B8D022B1ED1FB681B681A68FB6896
:103840001B6842F400621A6072B600BF00237B61FD
:10385000FB681B685B697B61FB681B689B697B611C
:103860007B69FB681B681A68FB681B6822F480622E
:103870001A6062B612E0FB681B681A68FB681B6876
:1038800042F480621A6000233B61FB681B685B693D
:103890003B61FB681B689B693B613B6972E1FB68AC
:1038A0001B8D032B00F21F81FB681B8D012B23D185
:1038B0007A6AB96BF86800F02DFD0346002B01D041
:1038C000012373E1FB681B681A69FB685B6AD2B26B
:1038D0001A70FB685B6A5A1CFB685A62FB681B8D96
:1038E000013B9AB2FB681A85FB685B8D9BB2013B7A
:1038F0009AB2FB685A8545E1FB681B8D022B52D1B9
:103900007B6A0093BB6B00220649F86800F058FB05
:103910000346002B08D0012348E100BF020010003D
:103920000000FFFF0400010072B600BFFB681B68C7
:103930001A68FB681B6842F400721A60FB681B6817
:103940001A69FB685B6AD2B21A70FB685B6A5A1C20
:10395000FB685A62FB681B8D013B9AB2FB681A85B3
:10396000FB685B8D9BB2013B9AB2FB685A8562B6DD
:1039700000BFFB681B681A69FB685B6AD2B21A70E9
:10398000FB685B6A5A1CFB685A62FB681B8D013B33
:103990009AB2FB681A85FB685B8D9BB2013B9AB2B9
:1039A000FB685A85EEE07B6A0093BB6B002281497D
:1039B000F86800F005FB0346002B01D00123F5E079
:1039C000FB681B681A68FB681B6822F480621A6037
:1039D00072B600BFFB681B681A69FB685B6AD2B2EB
:1039E0001A70FB685B6A5A1CFB685A62FB681B8D85
:1039F000013B9AB2FB681A85FB685B8D9BB2013B69
:103A00009AB2FB685A856C4B1B68DB086B4AA2FBB9
:103A100003231A0A13469B001344DA00D31A3B62AD
:103A20003B6A013B3B623B6A002B18D1FB680022DA
:103A30001A63FB68202283F83D20FB68002283F88C
:103A40003E20FB681B6C43F02002FB681A6462B6E0
:103A500000BFFB68002283F83C200123A6E0FB683E
:103A60001B685B6903F00403042BD9D1FB681B6856
:103A70001A68FB681B6842F400721A60FB681B68D6
:103A80001A69FB685B6AD2B21A70FB685B6A5A1CDF
:103A9000FB685A62FB681B8D013B9AB2FB681A8572
:103AA000FB685B8D9BB2013B9AB2FB685A8562B69C
:103AB00000BFFB681B681A69FB685B6AD2B21A70A8
:103AC000FB685B6A5A1CFB685A62FB681B8D013BF2
:103AD0009AB2FB681A85FB685B8D9BB2013B9AB278
:103AE000FB685A854EE07A6AB96BF86800F012FC00
:103AF0000346002B01D0012358E0FB681B681A69BC
:103B0000FB685B6AD2B21A70FB685B6A5A1CFB687E
:103B10005A62FB681B8D013B9AB2FB681A85FB68F1
:103B20005B8D9BB2013B9AB2FB685A85FB681B68B0
:103B30005B6903F00403042B24D1FB681B8D032B6A
:103B400007D1FB681B681A68FB681B6822F4806257
:103B50001A60FB681B681A69FB685B6AD2B21A704C
:103B6000FB685B6A5A1CFB685A62FB681B8D013B51
:103B70009AB2FB681A85FB685B8D9BB2013B9AB2D7
:103B8000FB685A85FB681B8D002B7FF488AEFB68B1
:103B9000202283F83D20FB68002283F83E20FB684A
:103BA000002283F83C20002300E002231846283737
:103BB000BD4680BD040001003000002089B5F81426
:103BC00080B588B002AFF8607A603B600B467B81BD
:103BD000FB68DB6A7B617B69082B06D07B69012B64
:103BE00003D07B6913F5803F08D1FB681B681A6816
:103BF000FB681B6842F480721A600BE0FB681B6B69
:103C0000122B07D1FB681B681A68FB681B6842F41B
:103C100080721A603B6800937B6800224FF00111AC
:103C2000F86800F0CDF90346002B0DD0FB681B6847
:103C30001B6803F48073B3F5807F03D1FB684FF4F6
:103C400000721A64032335E0FB681B69B3F5804FEB
:103C500008D17B89DBB21A46FB681B6802F0FE02C2
:103C60001A611BE07B89DB11DBB203F00603DBB2D8
:103C700063F00F03DAB2FB681B681A613B687A686D
:103C80000E49F86800F016FA0346002B01D0012314
:103C900010E07B89DAB2FB681B681A613B687A68BE
:103CA0000749F86800F006FA0346002B01D001230B
:103CB00000E0002318461837BD4680BD080001000B
:103CC0000200010080B588B002AFF86008461146D6
:103CD0001A4603467B810B463B811346FB80FB68FB
:103CE0001B681A68FB681B6842F480721A607B6A62
:103CF00000933B6A00224FF00111F86800F060F970
:103D00000346002B0DD0FB681B681B6803F480730F
:103D1000B3F5807F03D1FB684FF400721A6403236C
:103D20005FE07B89DBB21A46FB681B6802F0FE028B
:103D30001A617B6A3A6A2D49F86800F0BBF90346BC
:103D4000002B01D001234CE000237B61FB681B6842
:103D50005B697B61FB681B689B697B617B697A6A35
:103D6000396AF86800F046FA0346002B0DD0FB686C
:103D70001B6C042B07D1FB681B681A68FB681B6867
:103D800042F400721A6001232BE0FB88012B05D15D
:103D90003B89DAB2FB681B681A6121E03B891B0A88
:103DA0009BB2DAB2FB681B681A617A6A396AF868F2
:103DB00000F020FA0346002B0DD0FB681B6C042B8F
:103DC00007D1FB681B681A68FB681B6842F4007225
:103DD0001A60012305E03B89DAB2FB681B681A61AF
:103DE000002318461837BD4680BD00BF0200010001
:103DF00080B588B002AFF860084611461A460346FF
:103E00007B810B463B811346FB80FB681B681A686D
:103E1000FB681B6842F480621A60FB681B681A68C2
:103E2000FB681B6842F480721A607B6A00933B6AED
:103E300000224FF00111F86800F0C2F80346002B91
:103E40000DD0FB681B681B6803F48073B3F5807F9B
:103E500003D1FB684FF400721A640323AAE07B8944
:103E6000DBB21A46FB681B6802F0FE021A617B6A2D
:103E70003A6A5249F86800F01DF90346002B01D058
:103E8000012397E000237B61FB681B685B697B6112
:103E9000FB681B689B697B617B697A6A396AF86891
:103EA00000F0A8F90346002B0DD0FB681B6C042B17
:103EB00007D1FB681B681A68FB681B6842F4007234
:103EC0001A60012376E0FB88012B05D13B89DAB229
:103ED000FB681B681A6121E03B891B0A9BB2DAB2BE
:103EE000FB681B681A617A6A396AF86800F082F91F
:103EF0000346002B0DD0FB681B6C042B07D1FB681D
:103F00001B681A68FB681B6842F400721A60012380
:103F100050E03B89DAB2FB681B681A617A6A396A39
:103F2000F86800F067F90346002B0DD0FB681B6CA6
:103F3000042B07D1FB681B681A68FB681B6842F4F6
:103F400000721A60012335E0FB681B681A68FB6881
:103F50001B6842F480721A607B6A00933B6A0022FD
:103F60004FF00111F86800F02BF80346002B0DD03C
:103F7000FB681B681B6803F48073B3F5807F03D173
:103F8000FB684FF400721A64032313E07B89DBB2F1
:103F900043F00103DAB2FB681B681A617B6A3A6A74
:103FA0000649F86800F086F80346002B01D001238B
:103FB00000E0002318461837BD4680BD020001000E
:103FC00080B584B000AFF860B9603B601346FB7108
:103FD00048E03B68B3F1FF3F44D0FEF7BFF902462B
:103FE000BB69D31A3A689A4202D33B68002B39D195
:103FF000BB681B0CDBB2012B0DD1FB681B685B6936
:10400000DA43BB6813409BB2002B0CBF0123002393
:10401000DBB21A460CE0FB681B689B69DA43BB689D
:1040200013409BB2002B0CBF01230023DBB21A46C6
:10403000FB799A4216D1FB6800221A63FB682022A2
:1040400083F83D20FB68002283F83E20FB681B6C50
:1040500043F02002FB681A64FB68002283F83C20CE
:10406000012323E0BB681B0CDBB2012B0DD1FB68E5
:104070001B685B69DA43BB6813409BB2002B0CBF23
:1040800001230023DBB21A460CE0FB681B689B6926
:10409000DA43BB6813409BB2002B0CBF0123002303
:1040A000DBB21A46FB799A4293D0002318461037A8
:1040B000BD4680BD80B584B000AFF860B9607A605D
:1040C0003B6071E0FB681B685B6903F48063B3F5D8
:1040D000806F23D1FB681B681A68FB681B6842F479
:1040E00000721A60FB681B686FF480625A61FB689B
:1040F00000221A63FB68202283F83D20FB6800221F
:1041000083F83E20FB681B6C43F00402FB681A64D2
:10411000FB68002283F83C20012367E07B68B3F151
:10412000FF3F41D0FEF71AF902463B68D31A7A687E
:104130009A4202D37B68002B36D1BB681B0CDBB2E2
:10414000012B0CD1FB681B685B69DA43BB68134029
:104150009BB2002B14BF01230023DBB20BE0FB68F2
:104160001B689B69DA43BB6813409BB2002B14BFEA
:1041700001230023DBB2002B16D0FB6800221A6358
:10418000FB68202283F83D20FB68002283F83E2054
:10419000FB681B6C43F02002FB681A64FB6800227A
:1041A00083F83C20012321E0BB681B0CDBB2012B10
:1041B0000CD1FB681B685B69DA43BB6813409BB298
:1041C000002B14BF01230023DBB20BE0FB681B684C
:1041D0009B69DA43BB6813409BB2002B14BF0123D9
:1041E0000023DBB2002B7FF46DAF0023184610379D
:1041F000BD4680BD80B584B000AFF860B9607A601C
:1042000034E0F86800F0E3F80346002B01D0012306
:1042100034E0BB68B3F1FF3F28D0FEF79FF80246B9
:104220007B68D31ABA689A4202D3BB68002B1DD1AF
:10423000FB681B685B6903F08003802B16D0FB686A
:1042400000221A63FB68202283F83D20FB680022CD
:1042500083F83E20FB681B6C43F02002FB681A6465
:10426000FB68002283F83C20012307E0FB681B6801
:104270005B6903F08003802BC3D1002318461037FD
:10428000BD4680BD80B584B000AFF860B9607A608B
:1042900034E0F86800F09BF80346002B01D00123BE
:1042A00034E0BB68B3F1FF3F28D0FEF757F8024671
:1042B0007B68D31ABA689A4202D3BB68002B1DD11F
:1042C000FB681B685B6903F00403042B16D0FB68D2
:1042D00000221A63FB68202283F83D20FB6800223D
:1042E00083F83E20FB681B6C43F02002FB681A64D5
:1042F000FB68002283F83C20012307E0FB681B6871
:104300005B6903F00403042BC3D100231846103764
:10431000BD4680BD80B584B000AFF860B9607A60FA
:1043200049E0FB681B685B6903F01003102B19D18F
:10433000FB681B686FF010025A61FB6800221A6369
:10434000FB68202283F83D20FB68002283F83E2092
:10435000FB681A6CFB681A64FB68002283F83C2037
:10436000012330E0FDF7FAFF02467B68D31ABA68F2
:104370009A4202D3BB68002B1DD1FB681B685B69A6
:1043800003F04003402B16D0FB6800221A63FB6841
:10439000202283F83D20FB68002283F83E20FB6842
:1043A0001B6C43F02002FB681A64FB68002283F850
:1043B0003C20012307E0FB681B685B6903F04003B6
:1043C000402BAED1002318461037BD4680BD80B4C7
:1043D00083B000AF78607B681B685B6903F480631F
:1043E000B3F5806F1BD17B681B686FF480625A61E4
:1043F0007B6800221A637B68202283F83D207B685B
:10440000002283F83E207B681B6C43F004027B682B
:104410001A647B68002283F83C20012300E000231B
:1044200018460C37BD4680BC7047000080B586B08A
:1044300000AF78607B68002B01D1012372E27B68BA
:104440001B6803F00103002B00F08780924B5B6830
:1044500003F00C03042B0CD08F4B5B6803F00C03B0
:10446000082B12D18C4B5B6803F48033B3F5803F8B
:104470000BD1894B1B6803F40033002B6CD07B6895
:104480005B68002B68D101234CE27B685B68B3F565
:10449000803F06D1804B1B687F4A43F48033136012
:1044A0002EE07B685B68002B0CD17B4B1B687A4A43
:1044B00023F480331360784B1B68774A23F48023FE
:1044C00013601DE07B685B68B3F5A02F0CD1724BC5
:1044D0001B68714A43F4802313606F4B1B686E4A5C
:1044E00043F4803313600BE06B4B1B686A4A23F480
:1044F00080331360684B1B68674A23F48023136082
:104500007B685B68002B13D0FDF728FF386108E05B
:10451000FDF724FF02463B69D31A642B01D903231C
:1045200000E25D4B1B6803F40033002BF0D014E075
:10453000FDF714FF386108E0FDF710FF02463B6904
:10454000D31A642B01D90323ECE1534B1B6803F40A
:104550000033002BF0D100E000BF7B681B6803F044
:104560000203002B63D04C4B5B6803F00C03002B61
:104570000BD0494B5B6803F00C03082B1CD1464B56
:104580005B6803F48033002B16D1434B1B6803F0A8
:104590000203002B05D07B681B69012B01D001238E
:1045A000C0E13D4B1B6823F0F8027B685B69DB00D0
:1045B000394913430B603AE07B681B69002B20D01C
:1045C000364B01221A60FDF7C9FE386108E0FDF79D
:1045D000C5FE02463B69D31A022B01D90323A1E190
:1045E0002D4B1B6803F00203002BF0D02A4B1B68F5
:1045F00023F0F8027B685B69DB00274913430B60FB
:1046000015E0264B00221A60FDF7A8FE386108E08D
:10461000FDF7A4FE02463B69D31A022B01D90323FE
:1046200080E11D4B1B6803F00203002BF0D17B6877
:104630001B6803F00803002B3AD07B689B69002BB2
:1046400019D0174B01221A60FDF788FE386108E087
:10465000FDF784FE02463B69D31A022B01D90323DE
:1046600060E10D4B5B6A03F00203002BF0D00120E8
:1046700000F0FEFA1CE00A4B00221A60FDF76EFE05
:1046800038610FE0FDF76AFE02463B69D31A022B40
:1046900008D9032346E100BF001002400000424257
:1046A00080044242924B5B6A03F00203002BE9D183
:1046B0007B681B6803F00403002B00F0A680002336
:1046C000FB758B4BDB6903F08053002B0DD1884BBE
:1046D000DB69874A43F08053D361854BDB6903F084
:1046E0008053BB60BB680123FB75824B1B6803F4DE
:1046F0008073002B18D17F4B1B687E4A43F4807374
:104700001360FDF72BFE386108E0FDF727FE024637
:104710003B69D31A642B01D9032303E1754B1B6852
:1047200003F48073002BF0D07B68DB68012B06D18B
:104730006F4B1B6A6E4A43F0010313622DE07B68E6
:10474000DB68002B0CD16A4B1B6A694A23F001031A
:104750001362674B1B6A664A23F0040313621CE072
:104760007B68DB68052B0CD1614B1B6A604A43F008
:10477000040313625E4B1B6A5D4A43F0010313623C
:104780000BE05B4B1B6A5A4A23F001031362584B40
:104790001B6A574A23F0040313627B68DB68002B13
:1047A00015D0FDF7DBFD38610AE0FDF7D7FD0246C5
:1047B0003B69D31A41F28832934201D90323B1E015
:1047C0004B4B1B6A03F00203002BEED014E0FDF705
:1047D000C5FD38610AE0FDF7C1FD02463B69D31A09
:1047E00041F28832934201D903239BE0404B1B6A7C
:1047F00003F00203002BEED1FB7D012B05D13C4BD6
:10480000DB693B4A23F08053D3617B68DB69002B73
:1048100000F08780364B5B6803F00C03082B61D0F7
:104820007B68DB69022B46D1334B00221A60FDF70F
:1048300095FD386108E0FDF791FD02463B69D31A0A
:10484000022B01D903236DE0294B1B6803F0007391
:10485000002BF0D17B681B6AB3F5803F08D1244B55
:104860005B6823F400327B689B68214913434B60EB
:104870001F4B5B6823F474127B68196A7B685B6A60
:104880000B431B4913434B601B4B01221A60FDF77E
:1048900065FD386108E0FDF761FD02463B69D31A0A
:1048A000022B01D903233DE0114B1B6803F0007379
:1048B000002BF0D035E0104B00221A60FDF74EFDC2
:1048C000386108E0FDF74AFD02463B69D31A022B26
:1048D00001D9032326E0064B1B6803F00073002B6D
:1048E000F0D11EE07B68DB69012B07D1012319E0C1
:1048F0000010024000700040600042420B4B5B68B9
:10490000FB60FB6803F480327B681B6A9A4206D125
:10491000FB6803F470127B685B6A9A4201D0012342
:1049200000E0002318461837BD4680BD0010024045
:1049300080B584B000AF786039607B68002B01D10E
:104940000123D0E06A4B1B6803F007033A689A42E0
:1049500010D9674B1B6823F0070265493B68134376
:104960000B60634B1B6803F007033A689A4201D05F
:104970000123B8E07B681B6803F00203002B20D002
:104980007B681B6803F00403002B05D0594B5B6860
:10499000584A43F4E06353607B681B6803F00803E4
:1049A000002B05D0534B5B68524A43F4605353606D
:1049B000504B5B6823F0F0027B689B684D491343C2
:1049C0004B607B681B6803F00103002B40D07B68C1
:1049D0005B68012B07D1474B1B6803F40033002BA6
:1049E00015D101237FE07B685B68022B07D1414B27
:1049F0001B6803F00073002B09D1012373E03D4BCA
:104A00001B6803F00203002B01D101236BE0394B3B
:104A10005B6823F003027B685B68364913434B6095
:104A2000FDF79CFCF8600AE0FDF798FC0246FB6885
:104A3000D31A41F28832934201D9032353E02D4B1C
:104A40005B6803F00C027B685B689B009A42EBD1C9
:104A5000274B1B6803F007033A689A4210D2244B95
:104A60001B6823F0070222493B6813430B60204B6D
:104A70001B6803F007033A689A4201D0012332E031
:104A80007B681B6803F00403002B08D0194B5B689C
:104A900023F4E0627B68DB68164913434B607B6854
:104AA0001B6803F00803002B09D0124B5B6823F44A
:104AB00060527B681B69DB000E4913434B6000F0BA
:104AC00021F802460B4B5B681B0903F00F030A49F0
:104AD000CB5C22FA03F3094A1360094B1B681846A2
:104AE000FDF790FA002318461037BD4680BD00BF81
:104AF000002002400010024068A2000830000020A0
:104B00003400002080B487B000AF0023FB60002396
:104B1000BB6000237B6100237B6000233B611E4B55
:104B20005B68FB60FB6803F00C03042B02D0082BCE
:104B300003D027E0194B3B6127E0FB689B0C03F097
:104B40000F03174AD35C7B60FB6803F48033002BB0
:104B500010D0114B5B685B0C03F00103114AD35C6E
:104B6000BB607B680D4A03FB02F2BB68B2FBF3F348
:104B70007B6104E07B680C4A02FB03F37B617B6989
:104B80003B6102E0054B3B6100BF3B6918461C37A7
:104B9000BD4680BC704700BF0010024000127A0082
:104BA00080A2000890A2000800093D0080B400AF78
:104BB000024B1B681846BD4680BC70473000002081
:104BC00080B500AFFFF7F2FF0246054B5B681B0A9A
:104BD00003F007030349CB5C22FA03F3184680BDB8
:104BE0000010024078A2000880B500AFFFF7DEFF9A
:104BF0000246054B5B68DB0A03F007030349CB5C05
:104C000022FA03F3184680BD0010024078A2000883
:104C100080B483B000AF786039607B680F221A607F
:104C2000114B5B6803F003027B685A600E4B5B68B4
:104C300003F0F0027B689A600B4B5B6803F4E06260
:104C40007B68DA60084B5B68DB0803F4E0627B6832
:104C50001A61064B1B6803F007023B681A6000BF2D
:104C60000C37BD4680BC7047001002400020024057
:104C700080B485B000AF78600A4B1B680A4AA2FB7B
:104C800003235B0A7A6802FB03F3FB6000BFFB6847
:104C90005A1EFA60002BF9D100BF00BF1437BD4681
:104CA00080BC704730000020D34D621080B586B0C4
:104CB00000AF786000233B610023FB607B681B68CA
:104CC00003F00103002B7DD00023FB754F4BDB6904
:104CD00003F08053002B0DD14C4BDB694B4A43F062
:104CE0008053D361494BDB6903F08053BB60BB68E1
:104CF0000123FB75464B1B6803F48073002B18D10E
:104D0000434B1B68424A43F480731360FDF726FB54
:104D1000386108E0FDF722FB02463B69D31A642B99
:104D200001D903236DE03A4B1B6803F48073002B19
:104D3000F0D0364B1B6A03F44073FB60FB68002B1A
:104D40002ED07B685B6803F44073FA689A4227D0E0
:104D50002E4B1B6A23F44073FB602E4B01221A601A
:104D60002C4B00221A60294AFB681362FB6803F08F
:104D70000103002B14D0FDF7F1FA38610AE0FDF7CA
:104D8000EDFA02463B69D31A41F28832934201D9C7
:104D9000032336E01D4B1B6A03F00203002BEED009
:104DA0001A4B1B6A23F440727B685B6817491343F4
:104DB0000B62FB7D012B05D1144BDB69134A23F0F9
:104DC0008053D3617B681B6803F00203002B08D07B
:104DD0000E4B5B6823F440427B689B680B4913438E
:104DE0004B607B681B6803F01003002B08D0074B57
:104DF0005B6823F480027B68DB68044913434B60E3
:104E0000002318461837BD4680BD00BF0010024081
:104E1000007000404004424280B582B000AF78602C
:104E20007B68002B01D1012341E07B6893F83D3082
:104E3000DBB2002B06D17B68002283F83C20786827
:104E400000F039F87B68022283F83D207B681A68FD
:104E50007B6804331946104600F09CF97B680122F8
:104E600083F846207B68012283F83E207B6801227C
:104E700083F83F207B68012283F840207B68012271
:104E800083F841207B68012283F842207B6801225D
:104E900083F843207B68012283F844207B68012249
:104EA00083F845207B68012283F83D2000231846C3
:104EB0000837BD4680BD80B483B000AF786000BFC6
:104EC0000C37BD4680BC704780B485B000AF7860B9
:104ED0007B6893F83D30DBB2012B01D001233AE02F
:104EE0007B68022283F83D207B681B68DA687B6858
:104EF0001B6842F00102DA607B681B68184A934223
:104F00000ED07B681B68B3F1804F09D07B681B68AB
:104F1000144A934204D07B681B68134A934211D110
:104F20007B681B689B6803F00703FB60FB68062B2C
:104F300010D07B681B681A687B681B6842F001020E
:104F40001A6007E07B681B681A687B681B6842F080
:104F500001021A60002318461437BD4680BC704712
:104F6000002C0140000400400008004080B584B0DF
:104F700000AF78607B681B68DB68FB607B681B6840
:104F80001B69BB60BB6803F00203002B20D0FB68E9
:104F900003F00203002B1BD07B681B686FF002023A
:104FA0001A617B6801221A777B681B689B6903F092
:104FB0000303002B03D0786800F0D1F805E078688F
:104FC00000F0C4F8786800F0D3F87B6800221A7704
:104FD000BB6803F00403002B20D0FB6803F004033C
:104FE000002B1BD07B681B686FF004021A617B6882
:104FF00002221A777B681B689B6903F44073002BBD
:1050000003D0786800F0ABF805E0786800F09EF80F
:10501000786800F0ADF87B6800221A77BB6803F06F
:105020000803002B20D0FB6803F00803002B1BD0E3
:105030007B681B686FF008021A617B6804221A778C
:105040007B681B68DB6903F00303002B03D07868DF
:1050500000F085F805E0786800F078F8786800F0EE
:1050600087F87B6800221A77BB6803F01003002BD7
:1050700020D0FB6803F01003002B1BD07B681B685B
:105080006FF010021A617B6808221A777B681B6830
:10509000DB6903F44073002B03D0786800F05FF8FD
:1050A00005E0786800F052F8786800F061F87B68F5
:1050B00000221A77BB6803F00103002B0CD0FB68B9
:1050C00003F00103002B07D07B681B686FF001021F
:1050D0001A617868FCF74CFEBB6803F08003002B74
:1050E0000CD0FB6803F08003002B07D07B681B68A3
:1050F0006FF080021A61786800F0C3F8BB6803F0B3
:105100004003002B0CD0FB6803F04003002B07D0BA
:105110007B681B686FF040021A61786800F031F814
:10512000BB6803F02003002B0CD0FB6803F02003C6
:10513000002B07D07B681B686FF020021A6178682B
:1051400000F096F800BF1037BD4680BD80B483B034
:1051500000AF786000BF0C37BD4680BC704780B49C
:1051600083B000AF786000BF0C37BD4680BC70478D
:1051700080B483B000AF786000BF0C37BD4680BC00
:10518000704780B483B000AF786000BF0C37BD4675
:1051900080BC704780B485B000AF786039607B68B0
:1051A0001B68FB607B682F4A93420BD07B68B3F18E
:1051B000804F07D07B682C4A934203D07B682B4AF0
:1051C000934208D1FB6823F07003FB603B685B6887
:1051D000FA681343FB607B68224A93420BD07B68DA
:1051E000B3F1804F07D07B681F4A934203D07B689E
:1051F0001E4A934208D1FB6823F44073FB603B686E
:10520000DB68FA681343FB60FB6823F080023B68AD
:105210005B691343FB607B68FA681A603B689A68B5
:105220007B68DA623B681A687B689A627B680D4A21
:10523000934203D13B681A697B681A637B68012239
:105240005A617B681B6903F00103002B05D07B6862
:105250001B6923F001027B681A6100BF1437BD4649
:1052600080BC7047002C0140000400400008004052
:1052700080B483B000AF786000BF0C37BD4680BCFF
:10528000704780B483B000AF786000BF0C37BD4674
:1052900080BC704780B582B000AF78607B68002B1F
:1052A00001D1012342E07B6893F84130DBB2002B4F
:1052B00006D17B68002283F840207868FCF74EFE18
:1052C0007B68242283F841207B681B68DA687B684E
:1052D0001B6822F40052DA60786800F0B7FD7B6842
:1052E0001B681A697B681B6822F490421A617B680C
:1052F0001B685A697B681B6822F02A025A617B6826
:105300001B68DA687B681B6842F40052DA607B68CD
:1053100000225A647B68202283F841207B68202287
:1053200083F842207B6800225A630023184608371E
:10533000BD4680BD80B58AB002AFF860B9603B6001
:105340001346FB8000237B61FB6893F84130DBB29E
:10535000202B75D1BB68002B02D0FB88002B01D11C
:1053600001236EE0FB6800225A64FB68212283F867
:105370004120FCF7F3FF7861FB68FA889A84FB68A8
:10538000FA88DA84FB689B68B3F5805F08D1FB6814
:105390001B69002B04D10023FB61BB68BB6103E0E8
:1053A000BB68FB610023BB612EE03B6800937B6917
:1053B00000228021F86800F01CFB0346002B05D07A
:1053C000FB68202283F8412003233AE0FB69002B8D
:1053D0000BD1BB691B881A46FB681B68C2F3080225
:1053E0005A60BB690233BB6107E0FB691A78FB684E
:1053F0001B685A60FB690133FB61FB68DB8C9BB265
:10540000013B9AB2FB68DA84FB68DB8C9BB2002B11
:10541000CBD13B6800937B6900224021F86800F003
:10542000E8FA0346002B05D0FB68202283F84120D0
:10543000032306E0FB68202283F84120002300E0DC
:10544000022318462037BD4680BD80B584B000AF2A
:10545000F860B9601346FB80FB6893F84230DBB21A
:10546000202B12D1BB68002B02D0FB88002B01D16E
:1054700001230BE0FB6800221A63FB881A46B96817
:10548000F86800F00FFB034600E0022318461037CF
:10549000BD4680BD80B5BAB000AF78607B681B6840
:1054A0001B68C7F8E4307B681B68DB68C7F8E0302E
:1054B0007B681B685B69C7F8DC300023C7F8D8300D
:1054C0000023C7F8D430D7F8E43003F00F03C7F84F
:1054D000D830D7F8D830002B0FD1D7F8E43003F00C
:1054E0002003002B09D0D7F8E03003F02003002B75
:1054F00003D0786800F0ECFB5BE2D7F8D830002BE3
:1055000000F0DE80D7F8DC3003F00103002B06D179
:10551000D7F8E03003F49073002B00F0D180D7F877
:10552000E43003F00103002B0BD0D7F8E03003F494
:105530008073002B05D07B685B6C43F001027B68B5
:105540005A64D7F8E43003F00403002B0BD0D7F8EB
:10555000DC3003F00103002B05D07B685B6C43F06B
:1055600002027B685A64D7F8E43003F00203002B90
:105570000BD0D7F8DC3003F00103002B05D07B689B
:105580005B6C43F004027B685A64D7F8E43003F0A4
:105590000803002B11D0D7F8E03003F02003002BD4
:1055A00005D1D7F8DC3003F00103002B05D07B6870
:1055B0005B6C43F008027B685A647B685B6C002B71
:1055C00000F0F281D7F8E43003F02003002B08D07C
:1055D000D7F8E03003F02003002B02D0786800F009
:1055E00077FB7B681B685B6903F04003002B14BFEB
:1055F00001230023DBB2C7F8D4307B685B6C03F077
:105600000803002B03D1D7F8D430002B4FD0786893
:1056100000F081FA7B681B685B6903F04003002B94
:1056200041D07B681B681433C7F89C30D7F89C3096
:1056300053E8003FC7F89830D7F8983023F040037C
:10564000C7F8D0307B681B681433D7F8D020C7F870
:10565000A820C7F8A430D7F8A410D7F8A82041E8AC
:105660000023C7F8A030D7F8A030002BD9D17B6831
:10567000DB6B002B13D07B68DB6B7E4A5A637B6845
:10568000DB6B1846FDF7D8FA0346002B16D07B6873
:10569000DB6B5B6B7A68D26B104698470EE07868DC
:1056A00000F093F90AE0786800F08FF906E0786876
:1056B00000F08BF97B6800225A6475E100BF73E14A
:1056C0007B681B6B012B40F04F81D7F8E43003F06F
:1056D0001003002B00F04881D7F8E03003F01003EE
:1056E000002B00F041810023BB607B681B681B68B6
:1056F000BB607B681B685B68BB60BB687B681B68C2
:105700005B6903F04003002B00F0B6807B68DB6B25
:105710001B685B68A7F8BE30B7F8BE30002B00F0FE
:1057200045817B689B8DB7F8BE209A4280F03E8110
:105730007B68B7F8BE20DA857B68DB6B9B69202B22
:1057400000F088807B681B680C33C7F88830D7F876
:10575000883053E8003FC7F88430D7F8843023F40A
:105760008073C7F8B8307B681B680C33D7F8B82053
:10577000C7F89420C7F89030D7F89010D7F8942045
:1057800041E80023C7F88C30D7F88C30002BD9D1F2
:105790007B681B6814337B677B6F53E8003F3B6774
:1057A0003B6F23F00103C7F8B4307B681B681433E8
:1057B000D7F8B420C7F88020FB67F96FD7F88020AE
:1057C00041E80023BB67BB6F002BE1D17B681B68FE
:1057D00014333B663B6E53E8003FFB65FB6D23F0E3
:1057E0004003C7F8B0307B681B681433D7F8B0208B
:1057F000FA66BB66B96EFA6E41E800237B667B6E83
:10580000002BE3D17B68202283F842207B680022B2
:105810001A637B681B680C33FB64FB6C53E8003F26
:10582000BB64BB6C23F01003C7F8AC307B681B680B
:105830000C33D7F8AC20BA657B65796DBA6D41E859
:1058400000233B653B6D002BE3D17B68DB6B184687
:10585000FDF7B7F97B6802225A637B689A8D7B68F3
:10586000DB8D9BB2D31A9BB21946786800F0B6F86C
:105870009CE000BFDB5B00087B689A8D7B68DB8D5A
:105880009BB2D31AA7F8CE307B68DB8D9BB2002B7E
:1058900000F08E80B7F8CE30002B00F089807B6856
:1058A0001B680C33BB63BB6B53E8003F7B637B6BB4
:1058B00023F49073C7F8C8307B681B680C33D7F8A3
:1058C000C8207A643B64396C7A6C41E80023FB633E
:1058D000FB6B002BE3D17B681B6814337B627B6A14
:1058E00053E8003F3B623B6A23F00103C7F8C43032
:1058F0007B681B681433D7F8C4203A63FB62F96AEB
:105900003A6B41E80023BB62BB6A002BE3D17B68A2
:10591000202283F842207B6800221A637B681B6880
:105920000C333B613B6953E8003FFB60FB6823F0AD
:105930001003C7F8C0307B681B680C33D7F8C02051
:10594000FA61BB61B969FA6941E800237B617B694F
:10595000002BE3D17B6802225A63B7F8CE30194698
:10596000786800F03BF823E0D7F8E43003F08003D8
:10597000002B09D0D7F8E03003F08003002B03D0D0
:10598000786800F03EF914E0D7F8E43003F0400303
:10599000002B0ED0D7F8E03003F04003002B08D0E6
:1059A000786800F07DF904E000BF02E000BF00E08D
:1059B00000BFE837BD4680BD80B483B000AF7860DB
:1059C00000BF0C37BD4680BC704780B483B000AFC9
:1059D000786000BF0C37BD4680BC704780B483B090
:1059E00000AF78600B467B8000BF0C37BD4680BCA3
:1059F000704780B586B000AFF860B9603B60134671
:105A0000FB713BE03B6AB3F1FF3F37D0FCF7A6FCEC
:105A100002463B68D31A3A6A9A4202D33B6A002B89
:105A200001D103233AE0FB681B68DB6803F0040341
:105A3000002B23D0BB68802B20D0BB68402B1DD00F
:105A4000FB681B681B6803F00803082B16D10023B2
:105A50007B61FB681B681B687B61FB681B685B687C
:105A60007B617B69F86800F056F8FB6808225A648D
:105A7000FB68002283F8402001230FE0FB681B68CD
:105A80001A68BB681340BA689A420CBF012300230E
:105A9000DBB21A46FB799A42B4D000231846183775
:105AA000BD4680BD80B485B000AFF860B9601346D4
:105AB000FB80FB68BA689A62FB68FA889A85FB6883
:105AC000FA88DA85FB6800225A64FB68222283F890
:105AD0004220FB681B69002B07D0FB681B68DA6853
